:10000000F8C0000027C1000025C1000023C1000086
:1000100021C100001FC100001DC100001BC1000064
:1000200019C1000017C1000015C1000013C1000074
:1000300011C100000FC100000DC100000BC1000084
:1000400009C1000007C1000005C1000003C1000094
:1000500001C10000FFC00000FDC000000C9456511B
:10006000F9C000000C94E4590C94145AF3C0000039
:10007000F1C00000EFC00000EDC00000EBC00000C8
:10008000E9C00000E7C00000E5C00000E3C00000D8
:100090000C948B5A0C94BB5ADDC00000DBC00000EE
:1000A000D9C00000D7C00000D5C00000D3C00000F8
:1000B000D1C00000CFC00000CDC00000CBC0000008
:1000C000C9C00000C7C00000C5C000000C94325B6E
:1000D0000C94625BBFC000000C94D95B0C94095C6B
:1000E000B9C0000000002100240027002A002D00D4
:1000F0003000330001010000040107010A01000083
:100100002200250028002B002E00310034000201BF
:100110000000050108010B01050505050705080894
:100120000808020202020A0A080804040404010181
:100130000101010101010303030303030303040796
:1001400007070C0C0C0C0C0C0C0C0202020206062D
:100150000606060606060B0B0B0B0B0B0B0B010220
:1001600010202008081020401020408002010201C9
:100170000804020101020408102040808040201081
:1001800008040201800402018040201008040201DA
:100190000804020101020408102040800102040842
:1001A0001020408000000A0B02090C0D0E08070306
:1001B000040100000000000000000000000000003A
:1001C000000000000000000000000000000000002F
:1001D00012111000000000000000000000000000EC
:1001E000000000000000000000007F5A265BCD5B8D
:1001F000765C11241FBECFEFD1E2DEBFCDBF00E0A1
:100200000CBF14E0A0E0B2E0EEE8FAEB00E00BBFB8
:1002100002C007900D92A83CB107D9F72AE0A8ECDC
:10022000B4E001C01D92AE33B207E1F710E0C9EFB0
:10023000D0E000E006C021970109802FFE010E9456
:10024000105DC53FD10780E00807A9F70E946A4EFC
:100250000C94455DD5CECF93DF931F921F92CDB7FF
:10026000DEB789836A838A81882329F460E08981E3
:100270000E9469530CC08A81813029F461E0898130
:100280000E94695304C062E089810E9469530000A2
:100290000F900F90DF91CF910895CF93DF931F922E
:1002A0001F92CDB7DEB789836A838A81882329F0BC
:1002B00061E089810E94085504C060E089810E9444
:1002C000085500000F900F90DF91CF910895CF93C4
:1002D000DF9300D000D0CDB7DEB79C838B837E83C5
:1002E0006D831A82198289819A8126960FB6F894B5
:1002F000DEBF0FBECDBFDF91CF910895CF93DF93C7
:1003000000D000D01F921F92CDB7DEB79E838D83A1
:1003100078876F831C821B828D819E81892B19F4C3
:100320008FEF9FEFB6C08F819885892B19F48FEFDF
:100330009FEFAFC08091E4039091E503A091E603A5
:10034000B091E7038E3F9F4FAF4FBF4F81F48F8136
:100350009885FC0180819181A281B3818093E4031F
:100360009093E503A093E603B093E7030FC0809159
:10037000E4039091E503A091E603B091E7032F8198
:100380003885F90180839183A283B3838091E4034C
:100390009091E503A091E603B091E7038D819E81E2
:1003A000FC0182819381FC0180819181A281B381D2
:1003B00080933B0590933C05A0933D05B0933E058B
:1003C0008D819E81FC0182819381FC0184819581D4
:1003D000A681B78180933F0590934005A093410586
:1003E000B09342058D819E81FC0182819381FC0145
:1003F00080859185A285B3858093430590934405BC
:10040000A0934505B09346058D819E81FC018281B4
:100410009381FC0184859585A685B78580934705E2
:1004200090934805A0934905B0934A0510924B0557
:1004300010924C0510924D0510924E050E946712C5
:100440001A8219821A82198210C089819A81880FB2
:10045000991F88539B4F22E932E1FC0131832083AD
:1004600089819A8101969A83898389819A810297E9
:1004700060F30E945E0D9C838B838B819C81892B12
:1004800031F481E090E090933A05809339058B81B7
:100490009C8128960FB6F894DEBF0FBECDBFDF91CA
:1004A000CF910895CF93DF93CDB7DEB72C970FB6DA
:1004B000F894DEBF0FBECDBF69877A878B879C8794
:1004C0001A8219821B821C821D821E821F829091B9
:1004D000370581E0992309F080E0888782E090E089
:1004E00090933A058093390589859A85AB85BC85BB
:1004F000892B8A2B8B2B59F480913705882339F46B
:1005000080913805882319F481E090E002C080E0F2
:1005100090E08F8331C06AE070E080E090E00E945C
:1005200025528B819C81AD81BE81805F984DAF4FFC
:10053000BF4F8B839C83AD83BE8389859A85AB85B2
:10054000BC858F3F9F4FAF4FBF4F81F02B813C81C8
:100550004D815E8189859A85AB85BC85821793071D
:10056000A407B50718F481E090E002C080E090E0B5
:100570008F8380E00E94B60D80913705882339F47F
:1005800080913805882319F48F81882321F283E034
:1005900090E090933A05809339058F81882321F06C
:1005A0008CE99FEF9A8389838885882311F00E94C4
:1005B0008E1389819A812C960FB6F894DEBF0FBEF8
:1005C000CDBFDF91CF910895CF93DF93CDB7DEB745
:1005D00061970FB6F894DEBF0FBECDBF9D878C87A5
:1005E0004E875F87688B798B1A82198281E08B83B3
:1005F0008C859D858F3F910521F018F08FEF9FEF3F
:1006000063C08091390590913A05039731F080914C
:10061000390590913A05019731F484E090E0909388
:100620003A05809339058C859D85029708F58C8560
:100630009D85880F991F88539B4FFC018081918174
:10064000892BB1F00E9448189D838C838C819D81F9
:10065000029771F48C859D85880F991F88539B4F55
:10066000FC01208131818C859D85F90119958B8351
:100670008C859D859F838E832C853D858E859F856A
:10068000A889B989A901BC01CD010E943B0DDC01FB
:10069000CB0188879987AA87BB878B81882371F0D4
:1006A00088859985AA85BB852E813F81AC01BD01D6
:1006B000C9010E9418189A83898304C08E819F8182
:1006C0000E948A1889819A8161960FB6F894DEBFDC
:1006D0000FBECDBFDF91CF910895CF93DF931F92CF
:1006E0001F92CDB7DEB71A82198280E00E94B60D44
:1006F0009A83898389819A810F900F90DF91CF919E
:100700000895CF93DF931F921F92CDB7DEB71A8261
:10071000198286E090E090933A05809339050E9413
:10072000460E9A83898344E050E060E070E088ECF4
:1007300094E00E943E5D0E94201310923A051092B0
:10074000390589819A810F900F90DF91CF9108959B
:10075000CF93DF93CDB7DEB780913805DF91CF918E
:100760000895CF93DF93CDB7DEB780914F05DF912A
:10077000CF910895CF93DF9300D01F92CDB7DEB70E
:1007800069837A838B839C8389819A81AB81BC81C5
:100790008093E4039093E503A093E603B093E7030B
:1007A00080E090E00F900F900F900F90DF91CF912D
:1007B0000895CF93DF9300D000D01F921F92CDB742
:1007C000DEB76D837E838F8398878D819E81AF8115
:1007D000B885BF7720E030E040E859E5BC01CD01A5
:1007E0000E94B54F88230CF056C020E030E040E076
:1007F0005FE36D817E818F8198850E94EF50882311
:10080000BCF020E030E040E05FE36D817E818F81CD
:1008100098850E943E4FDC01CB01BC01CD010E94B6
:100820002750DC01CB0189839A83AB83BC833BC017
:1008300020E030E040E05FEB6D817E818F81988524
:100840000E94EF50181684F420E030E0A9016D8179
:100850007E818F8198850E94F350DC01CB018983D2
:100860009A83AB83BC831FC020E030E040E05FE3AD
:100870006D817E818F8198850E943D4FDC01CB0187
:10088000BC01CD010E94A24FDC01CB0189839A8378
:10089000AB83BC8308C08D819E81AF81B88589837D
:1008A0009A83AB83BC8389819A81AB81BC81BC0173
:1008B000CD0128960FB6F894DEBF0FBECDBFDF91F5
:1008C000CF910895CF93DF93CDB7DEB761970FB681
:1008D000F894DEBF0FBECDBF80912B0A882F90E029
:1008E000845A9F4F880F991F880F991F80509E4FE1
:1008F000FC0180819181A281B3818093000A909351
:10090000010AA093020AB093030A8091A403909174
:10091000A503A091A603B091A703BC01CD010E943D
:100920002750DC01CB01BC01CD010E94B94FDC0195
:10093000CB018230910509F463C0833091051CF42A
:10094000019749F04AC18330910509F4A5C0049785
:1009500009F4F2C042C18091240A882F90E0805CA3
:100960009F4F880F991F880F991F80509E4FFC0141
:1009700080819181A281B38189839A83AB83BC8377
:100980008091250A882F90E08C5B9F4F880F991FDC
:10099000880F991F80509E4FFC0180819181A28118
:1009A000B3818D839E83AF83B8878091260A882F79
:1009B00090E0885B9F4F880F991F880F991F805088
:1009C0009E4FFC0180819181A281B38189879A87A2
:1009D000AB87BC878091270A882F90E0845B9F4F6C
:1009E000880F991F880F991F80509E4FFC018081AE
:1009F0009181A281B3818D879E87AF87B88B1EC1FD
:100A00008091280A882F90E0805B9F4F880F991F64
:100A1000880F991F80509E4FFC0180819181A28197
:100A2000B38189839A83AB83BC838091290A882F01
:100A300090E08C5A9F4F880F991F880F991F805004
:100A40009E4FFC0180819181A281B3818D839E8321
:100A5000AF83B88780912A0A882F90E0885A9F4FE9
:100A6000880F991F880F991F80509E4FFC0180812D
:100A70009181A281B38189879A87AB87BC87809156
:100A8000000A9091010AA091020AB091030A8D8791
:100A90009E87AF87B88BD2C080912C0A882F90E0B8
:100AA000880F991F880F991F80509E4FFC018081ED
:100AB0009181A281B38189839A83AB83BC83809126
:100AC0002D0A882F90E00896880F991F880F991F8C
:100AD00080509E4FFC0180819181A281B3818D83E2
:100AE0009E83AF83B88780912E0A882F90E040962E
:100AF000880F991F880F991F80509E4FFC0180819D
:100B00009181A281B38189879A87AB87BC878091C5
:100B10002F0A882F90E04896880F991F880F991FF9
:100B200080509E4FFC0180819181A281B3818D878D
:100B30009E87AF87B88B82C08091300A882F90E063
:100B40008096880F991F880F991F80509E4FFC0137
:100B500080819181A281B38189839A83AB83BC8395
:100B60008091310A882F90E08896880F991F880F0E
:100B7000991F80509E4FFC0180819181A281B38199
:100B80008D839E83AF83B8878091320A882F90E04F
:100B9000C096880F991F880F991F80509E4FFC01A7
:100BA00080819181A281B38189879A87AB87BC8735
:100BB0008091330A882F90E0C896880F991F880F7C
:100BC000991F80509E4FFC0180819181A281B38149
:100BD0008D879E87AF87B88B31C0809180039091BD
:100BE0008103A0918203B091830389839A83AB83AD
:100BF000BC838091840390918503A0918603B0917A
:100C000087038D839E83AF83B887809188039091FB
:100C10008903A0918A03B0918B0389879A87AB8758
:100C2000BC8780918C0390918D03A0918E03B0912D
:100C30008F038D879E87AF87B88B000089819A814B
:100C4000AB81BC81BC01CD01B4DDDC01CB0189836A
:100C50009A83AB83BC8320E030E040E853E46981B1
:100C60007A818B819C810E94B54F8823BCF420E05F
:100C700030E0A90169817A818B819C810E94EF50CB
:100C8000882354F069817A818B819C810E94BE4FB8
:100C9000DC01CB01898B04C0198A02C08FEF898BDC
:100CA000698982E0FADA8D819E81AF81B885BC01C5
:100CB000CD017FDDDC01CB0189839A83AB83BC83CB
:100CC00020E030E040E853E469817A818B819C81A7
:100CD0000E94B54F8823BCF420E030E0A90169816F
:100CE0007A818B819C810E94EF50882354F0698126
:100CF0007A818B819C810E94BE4FDC01CB01898B64
:100D000004C0198A02C08FEF898B698983E0C5DA34
:100D100089859A85AB85BC85BC01CD014ADDDC01A6
:100D2000CB0189839A83AB83BC8320E030E040E829
:100D300053E469817A818B819C810E94B54F88231D
:100D4000BCF420E030E0A90169817A818B819C812B
:100D50000E94EF50882354F069817A818B819C81B5
:100D60000E94BE4FDC01CB01898B04C0198A02C0EE
:100D70008FEF898B698984E090DA8D859E85AF85B8
:100D8000B889BC01CD0115DDDC01CB0189839A83D3
:100D9000AB83BC8320E030E040E853E469817A8192
:100DA0008B819C810E94B54F8823BCF420E030E009
:100DB000A90169817A818B819C810E94EF508823EF
:100DC00054F069817A818B819C810E94BE4FDC0145
:100DD000CB01898B04C0198A02C08FEF898B698986
:100DE00085E05BDA9091370A8091D003890F898B77
:100DF000809190039989891728F48091B303809397
:100E0000370A03C089898093370A9091360A809106
:100E1000D103890F898B809191039989891728F4CF
:100E20008091B1038093360A03C089898093360A82
:100E30009091350A8091D203890F898B809192031A
:100E40009989891728F48091B2038093350A03C0E9
:100E500089898093350A9091340A8091D303890F50
:100E6000898B809193039989891728F48091B00325
:100E70008093340A03C089898093340A9091330A9D
:100E80008091D403890F898B809194039989891764
:100E900028F48091AF038093330A03C0898980933B
:100EA000330A9091320A8091D503890F898B809102
:100EB00095039989891728F48091AD038093320AAC
:100EC00003C089898093320A9091310A8091D603B8
:100ED000890F898B809196039989891728F48091CD
:100EE000AE038093310A03C089898093310A9091BF
:100EF000300A8091D703890F898B80919703998954
:100F0000891728F48091AC038093300A03C0898943
:100F10008093300A90912F0A8091D803890F898B92
:100F2000809198039989891728F48091AB03809365
:100F30002F0A03C0898980932F0A90912E0A8091ED
:100F4000D903890F898B809199039989891728F48E
:100F50008091BB0380932E0A03C0898980932E0A57
:100F600090912D0A8091DA03890F898B80919A03E1
:100F70009989891728F48091AA0380932D0A03C0C8
:100F8000898980932D0A90912C0A8091DB03890F27
:100F9000898B80919B039989891728F48091BA03E2
:100FA00080932C0A03C0898980932C0A90912B0A84
:100FB0008091DC03890F898B80919C039989891723
:100FC00028F48091B90380932B0A03C08989809308
:100FD0002B0A90912A0A8091DD03890F898B8091D9
:100FE0009D039989891728F48091B80380932A0A70
:100FF00003C0898980932A0A9091290A8091DE038F
:10100000890F898B80919E039989891728F4809193
:10101000B7038093290A03C089898093290A909194
:10102000280A8091DF03890F898B80919F0399891A
:10103000891728F48091B6038093280A03C0898910
:101040008093280A9091270A8091E003890F898B69
:101050008091A0039989891728F48091B503809322
:10106000270A03C089898093270A9091260A8091D4
:10107000E103890F898B8091A1039989891728F44D
:101080008091A9038093260A03C089898093260A48
:101090009091250A8091E203890F898B8091A203A8
:1010A0009989891728F48091B4038093250A03C095
:1010B00089898093250A9091240A8091E303890FFE
:1010C000898B8091A3039989891728F48091A803BB
:1010D0008093240A03C089898093240A2CEC34E08D
:1010E000F90186899789A08DB18D0196A11DB11D49
:1010F000F901868B978BA08FB18F8CEC94E0FC016B
:1011000086899789A08DB18D892B8A2B8B2B79F4B9
:101110002CEC34E0F901828D938DA48DB58D019670
:10112000A11DB11DF901828F938FA48FB58F00008F
:1011300061960FB6F894DEBF0FBECDBFDF91CF91A1
:101140000895CF93DF93CDB7DEB78CEC94E043E204
:1011500050E060E070E00E943E5D2CEC34E080E006
:1011600090E0A0E8BFEBF901868F978FA0A3B1A311
:101170002CEC34E081E394E7A7E3BDE2F90184833A
:101180009583A683B7832CEC34E08DE890E7A3E445
:10119000B7ECF90180879187A287B3872CEC34E004
:1011A00083E399EAADE6B3ECF90184879587A687D6
:1011B000B7872CEC34E08AEB91E9A3EEBFEBF901A1
:1011C000808B918BA28BB38B8CEC94E02FEE34E070
:1011D000FC01338322838BEF94E09093F00480939F
:1011E000EF0483E194E09093FC048093FB0483E19B
:1011F00094E09093FE048093FD0483E194E0909347
:1012000000058093FF0483E194E0909302058093AE
:10121000010583E194E0909304058093030583E145
:1012200094E0909306058093050583E194E0909304
:1012300008058093070583E194E090930A05809365
:10124000090583E194E090930C0580930B0583E1FD
:1012500094E090930E0580930D0583E194E09093C4
:10126000100580930F0583E194E09093120580931D
:10127000110583E194E0909314058093130583E1B5
:1012800094E0909316058093150583E194E0909384
:1012900018058093170583E194E090931A058093D5
:1012A000190583E194E090931C0580931B0583E16D
:1012B00094E090931E0580931D0583E194E0909344
:1012C000200580931F0583E194E09093220580938D
:1012D000210583E194E0909324058093230583E125
:1012E00094E0909326058093250583E194E0909304
:1012F00028058093270583E194E090932A05809345
:10130000290583E194E090932C0580932B0583E1DC
:1013100094E090932E0580932D0583E194E09093C3
:10132000300580932F0583E194E0909332058093FC
:10133000310583E194E0909334058093330583E194
:1013400094E090933605809335052CEC34E08CECDA
:1013500094E0FC01828193812C5E3F4FFC01358338
:1013600024832CEC34E08CEC94E0FC0182819381AA
:101370002C5F3F4FFC01338322838CEC94E0FC0113
:10138000228133818FEF9FEFDC01F9018087918704
:10139000A287B38744E050E060E070E080E09AE02C
:1013A0000E943E5D48E350E060E070E084E09AE037
:1013B0000E943E5D10921C0A81E080933B0A81E00E
:1013C00090E0A0E0B0E080931D0A90931E0AA093E5
:1013D0001F0AB093200A61E082E00E942B0181E0A5
:1013E0008093210A1092140A81E080933A0A81E0E6
:1013F00090E0A0E0B0E08093150A9093160AA093C5
:10140000170AB093180A61E083E00E942B0181E083
:101410008093190A10920C0A81E08093390A81E0C6
:1014200090E0A0E0B0E080930D0A90930E0AA093A4
:101430000F0AB093100A61E084E00E942B0181E062
:101440008093110A1092040A81E08093380A81E0A7
:1014500090E0A0E0B0E08093050A9093060AA09384
:10146000070AB093080A61E085E00E942B0181E041
:101470008093090A8091BC038093240A8091BD0364
:101480008093250A8091BE038093260A8091BF0332
:101490008093270A8091C0038093280A8091C1031A
:1014A0008093290A8091C20380932A0A8091C30302
:1014B00080932B0A8091C40380932C0A8091C503EA
:1014C00080932D0A8091C60380932E0A8091C703D2
:1014D00080932F0A8091C8038093300A8091C903BA
:1014E0008093310A8091CA038093320A8091CB03A2
:1014F0008093330A8091CC038093340A8091CD038A
:101500008093350A8091CE038093360A8091CF0371
:101510008093370A0000DF91CF910895CF93DF9336
:10152000CDB7DEB780911C0A882319F481E080933F
:101530001C0A8091140A882319F481E08093140A0C
:1015400080910C0A882319F481E080930C0A809121
:10155000040A882319F481E08093040A0000DF91D3
:10156000CF9108950F931F93CF93DF9300D000D0B6
:1015700000D01F92CDB7DEB79A8389834B835C83FB
:101580006D837E830F83188729873A8729813A8163
:101590008B819C81AD81BE81F90180839183A2837F
:1015A000B38389819A819C012C5F3F4F8F819885FD
:1015B000A985BA85F90180839183A283B383000052
:1015C0002A960FB6F894DEBF0FBECDBFDF91CF9144
:1015D0001F910F910895EF92FF920F931F93CF9356
:1015E000DF93CDB7DEB76A970FB6F894DEBF0FBEB4
:1015F000CDBF6D8B7E8B8F8B988F5A8F498F1982C1
:101600001A821B821C82F894898D9A8D892B09F08D
:101610000BC18091640590916505A0916605B0911C
:1016200067052D893E894F89588D281739074A0744
:101630005B07C8F08091640590916505A0916605EF
:10164000B09167052D893E894F89588D79018A01AE
:10165000E81AF90A0A0B1B0BD801C7018D839E8378
:10166000AF83B88718C08091640590916505A091FB
:101670006605B09167052D893E894F89588D79019E
:101680008A01E81AF90A0A0B1B0BD801C7018D83DE
:101690009E83AF83B8878091680590916905A0917A
:1016A0006A05B0916B052D813E814F815885820F6F
:1016B000931FA41FB51F898B9A8BAB8BBC8B80911A
:1016C000680590916905A0916A05B0916B0529891B
:1016D0003A894B895C89281739074A075B0798F4D0
:1016E00080916C0590916D05A0916E05B0916F058C
:1016F0000196A11DB11D80936C0590936D05A0937B
:101700006E05B0936F0589899A89AB89BC898093EE
:10171000680590936905A0936A05B0936B052091C5
:101720006C0530916D0540916E0550916F0580916B
:10173000680590916905A0916A05B0916B058901D2
:101740009A01AC01BD018CE595E00CDF8D899E8985
:10175000AF89B88D8093640590936505A093660565
:10176000B09367052D813E814F81588580E197E2D6
:10177000DC010E94185D9B01AC0180917005909185
:101780007105A0917205B0917305820F931FA41F7C
:10179000B51F8093700590937105A0937205B09367
:1017A00073058091700590917105A0917205B091BB
:1017B000730589839A83AB83BC838091E403909102
:1017C000E503A091E603B091E7038F3F9F4FAF4F32
:1017D000BF4F09F43CC18091E4039091E503A091CF
:1017E000E603B091E7038E3F9F4FAF4FBF4F09F421
:1017F0002EC1209168053091690540916A0550918C
:101800006B058091E4039091E503A091E603B0910C
:10181000E70361E0281739074A075B0708F460E02F
:10182000862F80934F0513C119861A861B861C8646
:101830001D861E861F86188A8091E8039091E90311
:10184000A091EA03B091EB038F3F9F4FAF4FBF4F83
:10185000E1F08091E8039091E903A091EA03B0914F
:10186000EB039C01AD012F5F3F4F4F4F5F4F8D89C1
:101870009E89AF89B88DBC01CD010E94EE5CDC0170
:10188000CB018D8B9E8BAF8BB88F8091640590912F
:101890006505A0916605B09167052D893E894F8940
:1018A000588D281739074A075B0708F447C080910D
:1018B000640590916505A0916605B09167052D8935
:1018C0003E894F89588D79018A01E81AF90A0A0B75
:1018D0001B0BD801C70189879A87AB87BC872091EA
:1018E00064053091650540916605509167058D89C5
:1018F0009E89AF89B88D79018A01E81AF90A0A0B25
:101900001B0BD801C7018D879E87AF87B88B2D85AC
:101910003E854F85588989859A85AB85BC85821718
:101920009307A407B50728F019861A861B861C861C
:101930004BC01D861E861F86188A46C0809164058E
:1019400090916505A0916605B09167052D893E8946
:101950004F89588D79018A01E81AF90A0A0B1B0B85
:10196000D801C70189879A87AB87BC872091640516
:101970003091650540916605509167058D899E8976
:10198000AF89B88D79018A01E81AF90A0A0B1B0B95
:10199000D801C7018D879E87AF87B88B2D853E857F
:1019A0004F85588989859A85AB85BC8582179307B1
:1019B000A407B50728F019861A861B861C8604C062
:1019C0001D861E861F86188A89859A85AB85BC85EB
:1019D000892B8A2B8B2BE1F029853A854B855C85F9
:1019E00080E197E2DC010E94185D9B01AC018091CF
:1019F000700590917105A0917205B0917305820FE9
:101A0000931FA41FB51F89839A83AB83BC831FC018
:101A1000E0907005F09071050091720510917305CA
:101A20002D853E854F85588980E197E2DC010E9433
:101A3000185DDC01CB01A8019701281B390B4A0B6B
:101A40005B0BDA01C90189839A83AB83BC837894E9
:101A500089819A81AB81BC81BC01CD016A960FB6A8
:101A6000F894DEBF0FBECDBFDF91CF911F910F91D4
:101A7000FF90EF900895CF93DF9300D000D0CDB7C3
:101A8000DEB769837A838B839C835E834D832D814C
:101A90003E8189819A81AB81BC81A901BC01CD01C4
:101AA0009ADDDC01CB01BC01CD0126960FB6F8947E
:101AB000DEBF0FBECDBFDF91CF910895CF93DF93EF
:101AC00000D000D0CDB7DEB71C821B821E821D82E3
:101AD0001A821982109250051092510510925205E7
:101AE0001092530510925405109255051092560508
:101AF00010925705109258051092590510925A05E8
:101B000010925B059E012B5F3F4FCE010396B901FA
:101B10000E94D34A2D813E818B819C81B9010E9414
:101B200049389A83898389819A81892B19F089811F
:101B30009A8113C09E012B5F3F4FCE010396B901DE
:101B40000E94F74A2D813E818B819C81B9010E94C0
:101B5000EC169A83898389819A8126960FB6F89428
:101B6000DEBF0FBECDBFDF91CF910895CF93DF933E
:101B700000D01F921F92CDB7DEB78D831A821982D3
:101B80001B8260E070E0CB010E9425521C820E9403
:101B9000133A9A83898389819A81892B39F08981C3
:101BA0009A81029619F081E08B830DC08C81882385
:101BB00021F489819A81029619F081E090E002C0B7
:101BC00080E090E08C838B818823E1F40E941F17D2
:101BD0009A83898389819A81892B39F089819A81B5
:101BE000029619F081E08B830DC08C81882321F44B
:101BF00089819A81029619F081E090E002C080E02C
:101C000090E08C838B818823E1F40E949E399A8333
:101C1000898389819A81892B39F089819A810296F9
:101C200019F081E08B830DC08C81882321F4898198
:101C30009A81029619F081E090E002C080E090E085
:101C40008C838D81882391F060E070E0CB010E944D
:101C500025528B81882319F48C81882319F481E023
:101C600090E002C080E090E08B8302C081E08B8333
:101C70008B81882309F48ACF89819A810F900F90F4
:101C80000F900F900F90DF91CF910895CF93DF9336
:101C900000D000D01F921F92CDB7DEB718861F82EA
:101CA00080914F05882329F060E070E0CB010E940D
:101CB0006B180E9448189E838D8319821A821B829A
:101CC0001C8218C06AE070E080E090E00E9425521B
:101CD00089819A81AB81BC81805F984DAF4FBF4FA6
:101CE00089839A83AB83BC8381E040DF0E944818DC
:101CF0009E838D8389819A81AB81BC8181159748B0
:101D0000A349B34020F48D819E81892BD9F60E948E
:101D1000531898878F830E94AE3B98878F831092C9
:101D200037051092380510923B0510923C05109231
:101D30003D0510923E0510923F051092400510920D
:101D400041051092420510924305109244051092ED
:101D500045051092460510924705109248051092CD
:101D6000490510924A0510924B0510924C051092AD
:101D70004D0510924E058EEF9FEFAFEFBFEF8093B2
:101D8000E4039093E503A093E603B093E703109276
:101D90004F0548E050E060E070E08CE595E00E947F
:101DA0003E5D1092640510926505109266051092D2
:101DB0006705109268051092690510926A051092E5
:101DC0006B0510926C0510926D0510926E051092C5
:101DD0006F051092700510927105109272051092A5
:101DE00073058F81988528960FB6F894DEBF0FBED5
:101DF000CDBFDF91CF910895CF93DF9300D000D076
:101E00001F921F92CDB7DEB780917605909177052E
:101E1000A0917805B09179059A83898389819A8107
:101E2000892B09F431C180917A05882369F4809166
:101E3000760590917705A0917805B0917905892B69
:101E40008A2B8B2B09F420C180918E0590918F05F0
:101E5000029709F019C180919805882309F014C1EF
:101E600089819A81FC0180819181A281B3818B83D8
:101E70009C83AD83BE8380919405882309F4F0C0D0
:101E80008091870590918805892B31F08091870595
:101E900090918805029719F481E090E002C080E0FB
:101EA00090E08F838091870590918805019731F0AC
:101EB0008091870590918805029719F481E090E060
:101EC00002C080E090E088878F81882309F462C097
:101ED00080917B0590917C05A0917D05B0917E0558
:101EE0009C01AD016B817C818D819E810E94EF50B0
:101EF0008823B4F08091900590919105A09192056E
:101F0000B091930520917B0530917C0540917D0532
:101F100050917E05BC01CD010E94B54F882344F14C
:101F200080917B0590917C05A0917D05B0917E0507
:101F30009C01AD016B817C818D819E810E94EF505F
:101F4000181644F58091900590919105A091920505
:101F5000B091930520917B0530917C0540917D05E2
:101F600050917E05BC01CD010E94B54F882391F4AC
:101F70008091830590918405A0918505B091860597
:101F8000892B8A2B8B2B19F481E08093970581E0B4
:101F9000809398058885882309F462C080917B0529
:101FA00090917C05A0917D05B0917E059C01AD01CD
:101FB0006B817C818D819E810E94B54F8823B4F412
:101FC0008091900590919105A0919205B091930513
:101FD00020917B0530917C0540917D0550917E05D7
:101FE000BC01CD010E94EF50882344F580917B0510
:101FF00090917C05A0917D05B0917E059C01AD017D
:102000006B817C818D819E810E94B54F882341F533
:102010008091900590919105A0919205B0919305C2
:1020200020917B0530917C0540917D0550917E0586
:10203000BC01CD010E94EF50181694F480918305E5
:1020400090918405A0918505B0918605892B8A2BF6
:102050008B2B19F481E08093970581E0809398059C
:102060009091980581E0992309F080E08093940590
:102070008B819C81AD81BE81809390059093910569
:10208000A0939205B0939305000028960FB6F8949C
:10209000DEBF0FBECDBFDF91CF910895CF93DF9309
:1020A0001F92CDB7DEB7198280918E0590918F0572
:1020B000892BC9F410928905109298058091F0033C
:1020C000882371F182E090E090938F0580938E05D4
:1020D0001092F00380918A0590918B05892B01F570
:1020E00081E089831DC01092F003809189058823C7
:1020F00049F01092970510928F0510928E0510925C
:1021000089050EC080918A0590918B05892B19F461
:1021100081E0898305C08091980589831092980594
:1021200080918E0590918F0582309105F9F0833072
:10213000910530F4009761F0019709F44CC1AEC1EC
:102140008330910509F4EEC0049709F46AC0A6C172
:102150008091F003882309F4ACC182E090E0909371
:102160008F0580938E051092F003A3C18981882387
:1021700009F4A1C18091830590918405A091850502
:10218000B0918605181619061A061B06ECF4809104
:102190008A0590918B050197B9F480918305909100
:1021A0008405A0918505B09186058093990590934B
:1021B0009A05A0939B05B0939C0583E090E09093D3
:1021C0008F0580938E0577C18091EC039091ED038C
:1021D000A091EE03B091EF03892B8A2B8B2BD1F0CA
:1021E00081E0809397058091EC039091ED03A0919D
:1021F000EE03B091EF038093990590939A05A09315
:102200009B05B0939C0584E090E090938F058093AC
:102210008E0551C11092970510928F0510928E0570
:102220004AC18091990590919A05A0919B05B09122
:102230009C05892B8A2B8B2B99F080919905909185
:102240009A05A0919B05B0919C050197A109B10940
:102250008093990590939A05A0939B05B0939C0554
:102260008091990590919A05A0919B05B0919C054C
:10227000892B8A2B8B2B09F020C180918C059091A2
:102280008D05019739F41092970510928F051092E1
:102290008E0513C180917F0590918005A0918105E5
:1022A000B0918205892B8A2B8B2BC9F01092970550
:1022B00080917F0590918005A0918105B091820564
:1022C0008093990590939A05A0939B05B0939C05E4
:1022D00081E090E090938F0580938E05EEC0898118
:1022E0008823B9F08091EC039091ED03A091EE0367
:1022F000B091EF038093990590939A05A0939B0565
:10230000B0939C0584E090E090938F0580938E05B8
:10231000D4C01092970582E090E090938F0580934F
:102320008E05CBC08091990590919A05A0919B054F
:10233000B0919C05892B8A2B8B2B99F08091990564
:1023400090919A05A0919B05B0919C050197A109D8
:10235000B1098093990590939A05A0939B05B0933A
:102360009C058091990590919A05A0919B05B0914B
:102370009C05892B8A2B8B2B09F0A1C08091EC0343
:102380009091ED03A091EE03B091EF03892B8A2B7E
:102390008B2BD1F081E0809397058091EC03909195
:1023A000ED03A091EE03B091EF0380939905909314
:1023B0009A05A0939B05B0939C0584E090E09093D0
:1023C0008F0580938E057BC01092970510928F0524
:1023D00010928E0574C08091990590919A05A091F4
:1023E0009B05B0919C05892B8A2B8B2B99F08091B2
:1023F000990590919A05A0919B05B0919C05019734
:10240000A109B1098093990590939A05A0939B0522
:10241000B0939C058091990590919A05A0919B0598
:10242000B0919C05892B8A2B8B2B09F04AC089819E
:10243000882369F18091EC039091ED03A091EE0364
:10244000B091EF03892B8A2B8B2BD1F081E0809305
:1024500097058091EC039091ED03A091EE03B0916C
:10246000EF038093990590939A05A0939B05B093F1
:102470009C0584E090E090938F0580938E0521C0A9
:102480001092970510928F0510928E051AC082E067
:1024900090E090938F0580938E0513C0109297055E
:1024A000109298051092890510928F0510928E0552
:1024B00009C0000007C0000005C0000003C0000004
:1024C00001C0000000000F90DF91CF910895CF93DD
:1024D000DF93CDB7DEB71092900510929105109260
:1024E0009205109293051092940580918A0590911F
:1024F0008B05909396058093950510929705109201
:1025000098051092990510929A0510929B051092C9
:102510009C0510928F0510928E0580E090E0DF916F
:10252000CF910895CF93DF9300D0CDB7DEB79B83D3
:102530008A838A819B81892B09F05BC020918A055F
:1025400030918B05809195059091960541E0281773
:10255000390709F440E0498380918A0590918B0501
:1025600090939605809395058981882381F0109238
:102570009705109298051092990510929A0510925D
:102580009B0510929C0510928F0510928E058091EC
:102590008A0590918B05019761F580918E05909148
:1025A0008F05892B21F48091F003882391F4809189
:1025B0008E0590918F050197E1F480919905909196
:1025C0009A05A0919B05B0919C050197A105B105C5
:1025D00081F41092990510929A0510929B05109221
:1025E0009C051092F00382E090E090938F05809319
:1025F0008E0580918A0590918B05019751F4809109
:102600007405909175052A813B812817390709F4D3
:10261000F3DB8A819B81892B21F440DD10929E059A
:1026200007C080919E05882319F080919D0502C006
:10263000809197050F900F900F90DF91CF910895A3
:10264000CF93DF93CDB7DEB710929005109291052E
:1026500010929205109293051092940510928F0596
:1026600010928E05109296051092950510927505A0
:102670001092740510929705109298051092990582
:1026800010929A0510929B0510929C0510929D0540
:1026900010929E051092760510927705109278059B
:1026A0001092790510927A0510927B0510927C05A4
:1026B00010927D0510927E0588EE93E0A0E0B0E0D8
:1026C0008093EC039093ED03A093EE03B093EF039C
:1026D00010927F051092800510928105109282055C
:1026E000109283051092840510928505109286053C
:1026F000109288051092870581E08093F003109274
:10270000890510928B0510928A0510928D05109202
:102710008C0580E090E0DF91CF910895CF93DF9317
:10272000CDB7DEB780918A0590918B05892B01F595
:102730008091F003882359F080918905882339F42A
:1027400081E080939D0581E080939E0511C080917A
:102750008905882351F08091F003882331F4109289
:102760009D0581E080939E0503C010929E0500C0E8
:102770000000DF91CF910895CF93DF93CDB7DEB7FF
:102780002C970FB6F894DEBF0FBECDBF9E838D830E
:1027900078876F835A8749873C872B871A821982EB
:1027A0000E94A33B9C838B838D819E81FC01808151
:1027B00091810E94803E8B859C8560E070E00E9444
:1027C0000C3B9C018F819885FC01318320830E9402
:1027D000F23A9C0189859A85FC01318320838F819F
:1027E0009885FC0180819181892BE1F08F8198850A
:1027F000FC01208131818B819C81B9010E94D642EC
:102800009C018D819E81FC01318320838D819E817D
:10281000FC0180819181892B49F486EF9FEF9A8397
:10282000898304C088EF9FEF9A83898389819A8185
:102830002C960FB6F894DEBF0FBECDBFDF91CF91BF
:102840000895CF93DF9300D000D0CDB7DEB79A8341
:1028500089837C836B835E834D8389819A81892BF5
:1028600021F089819A810E94803E8D819E81FC01A8
:102870001182108280E090E026960FB6F894DEBFB9
:102880000FBECDBFDF91CF910895CF93DF9300D0DE
:1028900000D0CDB7DEB79A8389837C836B835E8358
:1028A0004D838D819E8122E030E0FC0131832083C5
:1028B0008FEF9FEF26960FB6F894DEBF0FBECDBF09
:1028C000DF91CF910895CF93DF9300D01F92CDB7C2
:1028D000DEB78B836C8385E090E09A8389838B815C
:1028E000813F18F01A82198229C08B81843E40F002
:1028F0008B81813F28F481E090E09A8389831EC018
:102900008B81833D18F08B81833E48F08B81803C26
:1029100059F48C81882341F08C81833028F482E043
:1029200090E09A8389830AC08B81883C38F08B8140
:10293000833D20F483E090E09A83898389819A81A2
:102940000F900F900F900F90DF91CF910895CF933C
:10295000DF93CDB7DEB767970FB6F894DEBF0FBE33
:10296000CDBF998B888B7B8B6A8B5D8B4C8B3F8B20
:102970002E8B888999899C838B838B819C81FC0118
:1029800080818D8319828D81803C49F48A899B895D
:10299000029728F08B819C81FC0181818983809141
:1029A000A0059091A105892B09F455C069818D81FD
:1029B0008ADF9B878A871A828A859B850597C1F162
:1029C0008A859B85880F991F8A559A4FFC018081C3
:1029D00091819D878C871F861E868C859D85892B7E
:1029E00039F18D81882F90E02C853D85F90119956D
:1029F0009F878E8721E08E859F85892B09F420E0B3
:102A00002A838A818823A1F08E859F85FC012281FB
:102A100033818C899D89FC01318320838E859F853C
:102A2000FC01248135818E899F89FC0131832083BB
:102A30008A81882309F053C08C899D8925E434E17B
:102A4000FC01318320838E899F8928ED35E1FC01CB
:102A50003183208344C08D818F3FA9F58091A605E5
:102A60009091A7059F838E838C899D89FC0111829B
:102A700010828E899F89FC01118210828E819F8134
:102A8000892B69F12E813F818FEF90E0F901199533
:102A90009987888788859985892B09F18885998503
:102AA000FC01228133818C899D89FC013183208343
:102AB00088859985FC01248135818E899F89FC0157
:102AC000318320830CC08C899D8921E234E1FC0193
:102AD000318320838E899F89FC011182108200003E
:102AE00067960FB6F894DEBF0FBECDBFDF91CF91D2
:102AF0000895CF93DF93CDB7DEB78091A005909175
:102B0000A105DF91CF910895CF93DF931F921F927C
:102B1000CDB7DEB79A83898389819A819093A10585
:102B20008093A00500000F900F90DF91CF91089542
:102B3000CF93DF93CDB7DEB78091A205DF91CF9120
:102B40000895CF93DF931F92CDB7DEB7898390911D
:102B5000A2058981892B8093A20500000F90DF9147
:102B6000CF910895CF93DF931F92CDB7DEB78983BE
:102B7000898180959091A20589238093A205000008
:102B80000F90DF91CF910895CF93DF93CDB7DEB74C
:102B90008091A305DF91CF910895CF93DF93CDB7B7
:102BA000DEB78091A4059091A505DF91CF9108959E
:102BB000CF93DF9300D000D000D01F92CDB7DEB707
:102BC0009E838D8378876F835A8749878D819E8105
:102BD000892B51F48F8198859C838B838B819C8179
:102BE0002FEFFC01208394C08F8198859A8389837D
:102BF00089819A812EEFFC0120838D819E81092E8F
:102C0000000CAA0BBB0B4096A11DB11D8031910594
:102C1000A105B10508F076C0FC018827ED5EF94EEC
:102C20008F4F0C94105D7C16761670166A1664161B
:102C30005E16521658164C16461640163B162916A6
:102C400023162F16351689819A8120E3FC012183F2
:102C50005FC089819A8129E2FC01218359C0898161
:102C60009A8122E2FC01218353C089819A8120E26A
:102C7000FC0121834DC089819A81FC01118248C0E9
:102C800089819A8123E2FC01218342C089819A8152
:102C900021E2FC0121833CC089819A8121E1FC0170
:102CA000218336C089819A8127E2FC01218330C0CB
:102CB00089819A812AE2FC0121832AC089819A8133
:102CC00020E1FC01218324C089819A8124E2FC0156
:102CD00021831EC089819A8128E2FC01218318C0CA
:102CE00089819A8126E2FC01218312C089819A811F
:102CF00021E3FC0121830CC089819A8123E3FC013B
:102D0000218306C089819A8120E2FC01218300C0D1
:102D100000002A960FB6F894DEBF0FBECDBFDF913C
:102D2000CF910895CF93DF9300D000D000D01F92B1
:102D3000CDB7DEB79E838D8378876F835A874987A7
:102D40001A8219828F819885892BD9F11C821B8266
:102D50001C821B822BC02B813C81C901880F991FCB
:102D6000820F931F880F991F9C018F819885820F76
:102D7000931FFC01808191812D813E8128173907A5
:102D800081F42B813C81C901880F991F820F931F09
:102D9000880F991F9C018F819885820F931F9A83BA
:102DA00089838B819C8101969C838B832B813C81C1
:102DB00089859A852817390720F489819A81892B7A
:102DC00051F289819A812A960FB6F894DEBF0FBE20
:102DD000CDBFDF91CF910895CF93DF9300D01F92A5
:102DE000CDB7DEB79A8389837C836B8380919F05FF
:102DF000882319F084EF9FEF1BC049D554D59093D9
:102E0000A7058093A6050E94FB2D0E94132E909388
:102E1000AB058093AA050E94E4360E94EF3690939A
:102E2000A9058093A80581E080939F0580E090E04C
:102E30000F900F900F900F90DF91CF910895EF9228
:102E4000FF920F931F93CF93DF93CDB7DEB76497B5
:102E50000FB6F894DEBF0FBECDBF1A8219821C8256
:102E60001B8218861F821A8619861C861B861E8660
:102E70001D86188A1F861E821D821A8A198A1C8A3C
:102E80001B8A80919F05882319F487EF9FEFC3C0A9
:102E9000BE01635F7F4F9E01255F3F4FAE01475FDD
:102EA0005F4FCE0107968B01BC0180E090E00E944D
:102EB000503A9A83898389819A81892B49F0898143
:102EC0009A81049629F089819A81059609F096C025
:102ED0008F819885892B59F02B853C858D859E8522
:102EE000280F391F89859A858217930728F488EF60
:102EF0009FEF9A83898385C02F8138858B859C8538
:102F0000820F931F9E838D836D857E859E012D5E2E
:102F10003F4FAE014F5E5F4F8D819E8118DD8989E5
:102F20009A89892B29F484EF9FEF9A83898369C05A
:102F300029893A896B857C858F819885AE01415FAF
:102F40005F4FF90119959C838B838B899C89892B11
:102F500009F451C08F859889892B09F44CC01A82D5
:102F600019822D853E858F8598892817390768F441
:102F70002F853889AE01455F5F4FBE01675F7F4F88
:102F8000CE010796F9DB9A8389832D853E858D8155
:102F90009E81A90160E070E00E943E5D89819A8176
:102FA000892B49F52F8138858B859C85820F931F4E
:102FB0009E838D832B893C894F8558896D817E81C5
:102FC0008B819C81F90119956F8578894B855C858A
:102FD00029853A858F8198857B018A01AC016FEF45
:102FE0007FEF81E090E00E94F9389A83898389819C
:102FF0009A81892B29F489819A810DC0000001C032
:1030000000008F819885892B21F08F8198850E94FF
:10301000803E89819A8164960FB6F894DEBF0FBE18
:10302000CDBFDF91CF911F910F91FF90EF90089549
:10303000CF93DF9300D000D01F921F92CDB7DEB7A1
:103040009C838B834D835E836F8378871A8219827A
:1030500080919F05882319F487EF9FEF10C08D8121
:103060009E81AF81B885EB81FC8120E0AC01BD0180
:10307000CF010E942F319A83898389819A81289672
:103080000FB6F894DEBF0FBECDBFDF91CF9108958C
:10309000CF93DF93CDB7DEB78091A0059091A105C6
:1030A000DF91CF910895CF93DF93CDB7DEB70E9424
:1030B0000E370E94603516D448E050E060E070E0C2
:1030C00086EA95E00E943E5D10929F0580E090E0C8
:1030D000DF91CF910895CF93DF9300D000D0CDB78B
:1030E000DEB76B837C838D839E838B819C81AD81D6
:1030F000BE81BC01CD010E94ED319A838983898113
:103100009A8126960FB6F894DEBF0FBECDBFDF9131
:10311000CF910895CF93DF9300D01F921F92CDB728
:10312000DEB79D838C8381E089838C819D81298199
:1031300040E050E0BA010E942F319B838A838A814C
:103140009B810F900F900F900F900F90DF91CF9178
:103150000895CF93DF9300D01F921F92CDB7DEB7B3
:103160008D8381E090E09A8389830E94633B9C83F6
:103170008B838D81282F30E08B819C8149815A81FE
:10318000BA010E94DA5CCB0141E02817390708F048
:1031900040E0842F0F900F900F900F900F90DF91D1
:1031A000CF910895CF93DF9300D01F921F92CDB798
:1031B000DEB79C838B836D83A1D39A8389838091AF
:1031C000B305482F50E029813A818B819C81B90158
:1031D0000E94355D00000F900F900F900F900F90A0
:1031E000DF91CF910895CF93DF93CDB7DEB72D97C1
:1031F0000FB6F894DEBF0FBECDBF998788877B8757
:103200006A875D874C871A821982288539858A8565
:103210009B85820F931F9C838B838B819C819E83D4
:103220008D831F820E940B348F838F81882351F4FA
:103230008C859D8522E030E0FC013183208385EF81
:103240009FEF2DC08D819E81FC018181882331F00B
:103250008D819E81FC018181813019F481E090E0B3
:1032600002C080E090E08F838F81882351F48C85A9
:103270009D8522E030E0FC01318320838EEF9FEFBB
:103280000EC081E090E040DC1A8219828C859D8519
:1032900028E030E0FC013183208389819A812D96DA
:1032A0000FB6F894DEBF0FBECDBFDF91CF9108956A
:1032B000CF93DF9300D000D01F921F92CDB7DEB71F
:1032C0009C838B837E836D8358874F838B819C8106
:1032D000892BA9F58D819E819A83898389819A8121
:1032E00048E050E060E070E00E943E5D89819A8194
:1032F0002FEFFC01208325E089819A81FC01218345
:1033000020E089819A81FC0122830E94633B282F5F
:1033100089819A81FC0123830E945A3B9C01898107
:103320009A81FC013583248389819A8121E0FC0103
:10333000268389819A8121E0FC01278308C04F817F
:1033400058852D813E818B819C81B90131DC000043
:1033500028960FB6F894DEBF0FBECDBFDF91CF9198
:103360000895CF93DF9300D000D01F92CDB7DEB782
:103370009B838A837D836C835F834E8381E0898313
:103380000E940B3489838981882351F48E819F8127
:1033900022E030E0FC013183208385EF9FEF0CC0F9
:1033A00080E090E0B1DB8E819F8121E030E0FC0184
:1033B0003183208380E090E027960FB6F894DEBF3B
:1033C0000FBECDBFDF91CF910895CF93DF9300D093
:1033D00000D0CDB7DEB79A8389837C836B835E830D
:1033E0004D838D819E8126E030E0FC013183208376
:1033F00080E090E026960FB6F894DEBF0FBECDBFFA
:10340000DF91CF910895CF93DF9300D000D01F922A
:103410001F92CDB7DEB79C838B837E836D835887E5
:103420004F838D819E819A83898389819A8146E029
:1034300050E060E070E00E943E5D89819A812FEF4C
:10344000FC01208375DB282F89819A81FC0121836F
:103450009BDB282F89819A81FC0122839EDB9C01C2
:1034600089819A81FC0135832483000028960FB658
:10347000F894DEBF0FBECDBFDF91CF910895CF93FB
:10348000DF9300D000D01F92CDB7DEB79B838A8335
:103490007D836C835F834E8319820E94EE33898320
:1034A0008981882321F00E94883B0E94FF338E810E
:1034B0009F8122E030E0FC01318320838BEF9FEF7E
:1034C00027960FB6F894DEBF0FBECDBFDF91CF9128
:1034D0000895CF93DF93CDB7DEB72D970FB6F8944D
:1034E000DEBF0FBECDBF998788877B876A875D87E0
:1034F0004C871A821982288539858A859B85820F97
:10350000931F9C838B838B819C819E838D831F82E1
:103510008D819E81FC0123818D819E81FC018481AE
:103520009581A681B781422FBC01CD01F6D18F8351
:103530008F81882351F48C859D8522E030E0FC0149
:103540003183208384EF9FEF09C08C859D8521E026
:1035500030E0FC013183208389819A812D960FB65A
:10356000F894DEBF0FBECDBFDF91CF910895CF930A
:10357000DF93CDB7DEB72F970FB6F894DEBF0FBE3F
:10358000CDBF9B878A877D876C875F874E871A822E
:1035900019822A853B858C859D85820F931F9C838C
:1035A0008B838B819C819E838D831F82A7D199877A
:1035B00088878D819E81FC018181CBDD8F838F8106
:1035C000882351F48E859F8522E030E0FC01318311
:1035D00020838EEF9FEF22C088859985892B51F437
:1035E0008E859F8522E030E0FC013183208384EFCB
:1035F0009FEF14C08D819E81FC0181818093B30572
:103600008091B305882F90E09C012F5F3F4F8E85FE
:103610009F85FC013183208389819A812F960FB683
:10362000F894DEBF0FBECDBFDF91CF910895CF9349
:10363000DF93CDB7DEB72D970FB6F894DEBF0FBE80
:10364000CDBF998788877B876A875D874C87888508
:103650009985892B91F552D19A8389838A859B8597
:103660009C838B838B819C8141E050E060E070E023
:103670000E943E5D8B819C812FEFFC01208389811C
:103680009A81892B11F18091B305882F90E00196E2
:103690002C853D8528173907C1F48A859B850196BD
:1036A0009E838D831F828D819E816F817BDD8091C2
:1036B000B30564D11092B30508C04C855D852A8599
:1036C0003B8588859985B90173DA00002D960FB680
:1036D000F894DEBF0FBECDBFDF91CF910895CF9399
:1036E000DF93CDB7DEB72D970FB6F894DEBF0FBED0
:1036F000CDBF998788877B876A875D874C871A82C9
:103700001982288539858A859B85820F931F9C8322
:103710008B838B819C819E838D831F828D819E8173
:10372000FC01818116DD8F838F81882351F48C8584
:103730009D8522E030E0FC01318320838EEF9FEFF6
:1037400031C08D819E81FC0123818D819E81FC0190
:1037500084819581A681B781422FBC01CD01DDD046
:103760008F838F81882351F48C859D8522E030E002
:10377000FC013183208384EF9FEF14C08D819E81F3
:10378000FC0181818093B3058091B305882F90E07F
:103790009C012F5F3F4F8C859D85FC0131832083E9
:1037A00089819A812D960FB6F894DEBF0FBECDBFEA
:1037B000DF91CF910895CF93DF93CDB7DEB72D97EB
:1037C0000FB6F894DEBF0FBECDBF998788877B8781
:1037D0006A875D874C8788859985892B91F58ED07E
:1037E0009A8389838A859B859C838B838B819C812B
:1037F00041E050E060E070E00E943E5D8B819C8182
:103800002FEFFC01208389819A81892B11F180910E
:10381000B305882F90E001962C853D852817390740
:10382000C1F48A859B8501969E838D831F828D813D
:103830009E816F81B7DC8091B305A0D01092B30553
:1038400008C04C855D852A853B8588859985B901A9
:10385000AFD900002D960FB6F894DEBF0FBECDBFD6
:10386000DF91CF910895CF93DF931F921F92CDB731
:10387000DEB79A83898389819A8147E050E064E1C9
:1038800074E050DA0F900F90DF91CF910895CF93AD
:10389000DF93CDB7DEB783E39CE110D093D0000077
:1038A000DF91CF910895CF93DF93CDB7DEB78091AD
:1038B000B4059091B505DF91CF910895CF93DF9333
:1038C0001F921F92CDB7DEB79A83898389819A812F
:1038D0009093B5058093B40500000F900F90DF9191
:1038E000CF910895CF93DF93CDB7DEB773D080E04B
:1038F00090E0E4DF0000DF91CF910895CF93DF9354
:10390000CDB7DEB78091AE059091AF05A091B0051F
:10391000B091B105DF91CF910895CF93DF9300D09F
:103920001F921F92CDB7DEB769837A838B839C8306
:103930004D838D81882351F489819A81AB81BC812B
:10394000892B8A2B8B2B11F480E010C089819A81FE
:10395000AB81BC818093AE059093AF05A093B00579
:10396000B093B1058D818093B20581E00F900F90E7
:103970000F900F900F90DF91CF910895CF93DF9329
:103980001F92CDB7DEB789832091AE053091AF0588
:103990004091B0055091B1058981882F90E0A0E059
:1039A000B0E0820F931FA41FB51F8093AE059093C4
:1039B000AF05A093B005B093B10500000F90DF9163
:1039C000CF910895CF93DF93CDB7DEB70000DF919D
:1039D000CF910895CF93DF93CDB7DEB70000DF918D
:1039E000CF910895CF93DF9300D0CDB7DEB79B83FF
:1039F0008A831982F8948091BC059091BD0521E0DD
:103A0000892B09F020E029838981882309F478949F
:103A100089810F900F900F90DF91CF910895CF93F0
:103A2000DF931F921F92CDB7DEB79A838983789474
:103A300000000F900F90DF91CF910895CF93DF9307
:103A40001F921F92CDB7DEB79A838983F894809135
:103A5000BC059091BD0501969093BD058093BC0572
:103A6000789400000F900F90DF91CF910895CF933D
:103A7000DF931F921F92CDB7DEB79A838983F894A4
:103A80008091BC059091BD0501979093BD058093F1
:103A9000BC05789400000F900F90DF91CF910895AE
:103AA000CF93DF931F921F92CDB7DEB79A8389839E
:103AB0002091B6053091B70549815A8163E1649F31
:103AC000C001659F900D1124820F931FFC0183811B
:103AD0009481029799F02091B6053091B7054981FC
:103AE0005A8163E1649FC001659F900D1124820F8C
:103AF000931FFC0183819481039719F481E090E086
:103B000002C080E090E00F900F90DF91CF91089578
:103B1000CF93DF9300D0CDB7DEB719821B821A8214
:103B20001B821A8209C08A819B81BADF89838A81BC
:103B30009B8101969B838A838091B8059091B905FA
:103B40002A813B812817390718F48981882359F382
:103B500081E09981992309F080E00F900F900F90F8
:103B6000DF91CF910895CF93DF9300D01F921F92E2
:103B7000CDB7DEB79B838A836C834D838091B60576
:103B80009091B705892B09F477C08091B805909181
:103B9000B9052A813B812817390708F06DC02091AB
:103BA000B6053091B7054A815B8163E1649FC0012E
:103BB000659F900D1124820F931FFC0180819181DC
:103BC000892B09F459C02091B6053091B7054A8177
:103BD0005B8163E1649FC001659F900D1124820F9A
:103BE000931FFC0182819C81981708F045C02091A9
:103BF000B6053091B7054A815B8163E1649FC001DE
:103C0000659F900D1124820F931FFC01208131814B
:103C10008C81482F50E06DE0649FC001659F900D3E
:103C20001124820F931FFC0180819181892B21F146
:103C30002091B6053091B7054A815B8163E1649FAD
:103C4000C001659F900D1124820F931FFC012081FC
:103C500031818C81482F50E06DE0649FC001659FE9
:103C6000900D1124820F931FFC0182819D81981772
:103C700018F481E090E002C080E090E089838981BF
:103C80000F900F900F900F900F90DF91CF910895AC
:103C9000CF93DF9300D000D000D0CDB7DEB78C83B8
:103CA0006D832E833F834887598719828D81882FA2
:103CB00090E09B838A838C818F3F41F48A819B8132
:103CC0008F3F910509F010F481E08983898129965D
:103CD0000FB6F894DEBF0FBECDBFDF91CF91089530
:103CE000CF93DF931F92CDB7DEB789838981882F69
:103CF00090E08F7E21E0892B09F020E0822F0F9049
:103D0000DF91CF910895CF93DF931F921F92CDB78C
:103D1000DEB78A8319828A81882331F08A818130D3
:103D200019F08A81823011F481E0898389810F90B2
:103D30000F90DF91CF910895CF93DF931F921F9241
:103D4000CDB7DEB78A8319828A81882331F08A81D0
:103D5000813019F08A81823011F481E08983898170
:103D60000F900F90DF91CF910895CF93DF93CDB750
:103D7000DEB781E0DF91CF910895CF93DF9300D03C
:103D8000CDB7DEB79B838A832091B6053091B70506
:103D90004A815B8163E1649FC001659F900D11249E
:103DA000820F931FFC0183858230D9F42091B605E0
:103DB0003091B7054A815B8163E1649FC001659FD3
:103DC000900D1124820F931FFC0125813681809173
:103DD000F9039091FA032817390719F081E090E070
:103DE00002C080E090E089838981882339F08A814C
:103DF0009B81892B19F481E090E002C080E090E083
:103E0000898389810F900F900F90DF91CF91089552
:103E1000CF93DF9300D000D01F92CDB7DEB79E8343
:103E20008D836F838D819E81FC01208131818F8103
:103E3000482F50E06DE0649FC001659F900D1124F4
:103E4000820F931F9C838B838B819C81FC01438118
:103E500054818D819E81FC0125853685429FC0015C
:103E6000439F900D529F900D112401969A83898350
:103E70008F81882379F48D819E81FC018781882F31
:103E800090E080719927892B29F089819A81049685
:103E90009A83898389819A8127960FB6F894DEBF29
:103EA0000FBECDBFDF91CF910895CF93DF9300D0A8
:103EB00000D000D01F921F92CDB7DEB79B878A87B4
:103EC0001D821C821A8219821B821B821EC08A8557
:103ED0009B856B819DDF9F838E83198618868E81DB
:103EE0009F8161E070E00E940C3B9987888728855C
:103EF000398589819A818217930720F4888599856D
:103F00009A8389838B818F5F8B838A859B85FC0154
:103F100082819B819817D8F28A859B85AC014F5E80
:103F20005F4F8A859B85FC018281282F30E0C90183
:103F3000880F991F280F391F89819A81B9010E9422
:103F40007F3F9D838C838C819D81892B39F08A856D
:103F50009B852FEF3FEFFC01328B218B8C819D8164
:103F60002B960FB6F894DEBF0FBECDBFDF91CF9179
:103F70000895CF93DF931F921F92CDB7DEB79A8338
:103F8000898389819A81FC0181899289019639F01E
:103F900089819A81FC01818992890E9421418981CC
:103FA0009A812FEF3FEFFC01328B218B00000F90A5
:103FB0000F90DF91CF910895CF93DF93CDB7DEB708
:103FC00061970FB6F894DEBF0FBECDBF9D878C877B
:103FD0007F876E87598B488B1A8219822C853D8585
:103FE0008E859F85820F931F9C838B838B819C8101
:103FF0009E838D838D819E81FC0182819381988730
:104000008F838D819E81FC01848189878D819E8132
:10401000FC0185818A871B868F8198854A85698501
:10402000A2DD8B878B85882351F48889998922E0CA
:1040300030E0FC01318320838EEF9FEF2BC08F8116
:1040400098852EDD982F81E0992309F080E08B87F9
:104050008B85882351F48889998922E030E0FC011E
:104060003183208388EF9FEF15C08F8198859093CF
:10407000F6038093F50389858093F7038A858093FF
:10408000F8038889998921E030E0FC01318320839D
:1040900089819A8161960FB6F894DEBF0FBECDBFBD
:1040A000DF91CF910895CF93DF93CDB7DEB76397BC
:1040B0000FB6F894DEBF0FBECDBF9F878E87798B7A
:1040C000688B5B8B4A8B1A8219822E853F85888983
:1040D0009989820F931F9C838B838B819C819E8304
:1040E0008D838091F5039091F60398878F8380915B
:1040F000F70389878091F8038A871C861B861D86B3
:104100008F8198854A8569852EDD8D878D858823E9
:1041100051F48A899B8922E030E0FC0131832083BD
:104120008AEF9FEF9AC08F819885BADC982F81E043
:10413000992309F080E08D878D85882351F48A8941
:104140009B8922E030E0FC013183208388EF9FEFE0
:1041500084C08D819E81FC0184819581A681B78177
:104160002D813E81F90162812D813E81F9017181AC
:104170009C01AD01872F8CDD8D878D85882351F4BF
:104180008A899B8922E030E0FC01318320838EEF15
:104190009FEF63C02091B6053091B7054F815885D8
:1041A00063E1649FC001659F900D1124820F931FEE
:1041B000FC01208131818985482F50E06DE0649FAA
:1041C000C001659F900D1124820F931FFC01408157
:1041D00051818A85282F30E0C901880F991F880FE7
:1041E000991F880F991F821B930B840F951F9C8723
:1041F0008B878D819E81FC0121818B859C85FC01B3
:1042000020838D819E81FC0122818B859C85FC0110
:1042100021838D819E81FC0123818B859C85FC01FE
:1042200022838D819E81FC0184819581A681B78145
:104230002B853C85F90183839483A583B683809184
:10424000F8038F5F8093F8038A899B8921E030E02F
:10425000FC013183208389819A8163960FB6F8949B
:10426000DEBF0FBECDBFDF91CF910895CF93DF9317
:10427000CDB7DEB72F970FB6F894DEBF0FBECDBF18
:104280009B878A877D876C875F874E871A82198212
:104290002A853B858C859D85820F931F9C838B830C
:1042A0008B819C819E838D8318861F8219868091C5
:1042B000B6059091B705892B79F08D819E81FC011F
:1042C000228133818091B8059091B905281739076B
:1042D00018F481E090E002C080E090E08987898551
:1042E000882351F48E859F8522E030E0FC013183E4
:1042F00020838EEF9FEFA3C02091B6053091B705C4
:104300008D819E81FC014281538163E1649FC001E4
:10431000659F900D1124820F931F98878F838D8145
:104320009E81FC0182819381BBDB982F81E09923E0
:1043300009F080E089878985882351F48E859F85DF
:1043400022E030E0FC013183208388EF9FEF77C0CB
:104350008D819E81FC018481958121E080389105C9
:1043600008F020E029878985882351F48E859F8570
:1043700022E030E0FC01318320838EEF9FEF5FC0AD
:104380008D819E81FC01978181E0992309F080E075
:1043900089878985882351F48E859F8522E030E0C6
:1043A000FC01318320838EEF9FEF49C08D819E8178
:1043B000FC01818195DC89878985882351F48E856C
:1043C0009F8522E030E0FC013183208386EF9FEF60
:1043D00036C08D819E81FC0121818F819885FC01F1
:1043E00027838D819E81FC01248135818F81988571
:1043F000FC01368325838D819E81FC0126818F817E
:104400009885FC0120878D819E81FC0127818F8109
:104410009885FC0121878F819885FC0180858230F9
:1044200028F48F81988521E0FC0120878E859F8567
:1044300021E030E0FC013183208389819A812F962D
:104440000FB6F894DEBF0FBECDBFDF91CF910895B8
:104450000F931F93CF93DF93CDB7DEB76C970FB653
:10446000F894DEBF0FBECDBF988F8F8B7A8F698F88
:104470005C8F4B8F1B861A862F89388D898D9A8D7C
:10448000820F931F9D878C878C859D859F878E8744
:10449000198A188A8E859F85FC0182819381CC01BF
:1044A000A0E0B0E08A8B9B8BAC8BBD8B19821E8AFF
:1044B0008091B6059091B705892B99F08091B80548
:1044C0009091B905CC01A0E0B0E02A893B894C89E4
:1044D0005D89281739074A075B071CF481E090E0E3
:1044E00002C080E090E089838981882351F48B8D1C
:1044F0009C8D22E030E0FC01318320838EEF9FEF22
:1045000040C28A899B89AC89BD898093F1039093CD
:10451000F203A093F303B093F4032091B605309116
:10452000B7054A895B8963E1649FC001659F900D6F
:104530001124820F931F998B888B8E859F85FC0198
:104540008181E1DB89838981882351F48B8D9C8D66
:1045500022E030E0FC013183208386EF9FEF11C21F
:1045600004DC882309F47DC088899989FC01838152
:104570009481892B09F075C088899989FC0187810C
:10458000882F90E082709927892B81F188899989F9
:10459000FC0180819181892B91F08091BB05282FAE
:1045A00030E088899989FC018281882F90E0820F10
:1045B000931F813891051CF481E090E002C080E0F7
:1045C00090E089838981882309F43EC02091BB054E
:1045D00088899989FC0122872091BB05888999895E
:1045E000FC018281820F8093BB052EC08889998946
:1045F000FC0180819181892B91F08091BA05282F4F
:1046000030E088899989FC018281882F90E0820FAF
:10461000931F8D3F91051CF481E090E002C080E083
:1046200090E089838981882379F02091BA0588896F
:104630009989FC0122872091BA0588899989FC0112
:104640008281820F8093BA058981882351F48B8DF2
:104650009C8D22E030E0FC013183208387EF9FEFC7
:1046600090C18E859F85FC018181813039F08E85D6
:104670009F85FC018181823009F0CBC01B821A82A8
:1046800081E089831B821A82B5C01D821C821F8231
:104690001E821D821C822EC088899989FC0120817E
:1046A00031814A815B816DE0649FC001659F900DFF
:1046B0001124820F931FFC01408151812C813D8187
:1046C000C901880F991F880F991F880F991F821B96
:1046D000930B840F951FFC018181882F90E02E8120
:1046E0003F81820F931F9F838E838C819D810196D2
:1046F0009D838C8388899989FC01208131814A813D
:104700005B816DE0649FC001659F900D1124820F55
:10471000931FFC018281882F90E02C813D81281716
:1047200039070CF4B9CF8A819B81892B21F58889BF
:104730009989FC018781882F90E080719927892BC6
:10474000D1F088899989FC01458556852E813F8164
:10475000429FC001439F900D529F900D11248C01E8
:104760000B5F1F4F0E945A3B21E08017910708F40E
:1047700020E0298319C088899989FC0145855685DF
:104780002E813F81429FC001439F900D529F900D0B
:1047900011248C010F5F1F4F0E945A3B21E08017AC
:1047A000910708F420E029838981882351F48B8DB7
:1047B0009C8D22E030E0FC013183208387EF9FEF66
:1047C000E0C088899989FC01208131814A815B811F
:1047D0006DE0649FC001659F900D1124820F931FAF
:1047E0002E813F81FC01348323838A819B81019642
:1047F0009B838A8388899989FC018281882F90E034
:104800002A813B812817390724F48981882309F0FC
:104810003CCF88899989FC0185819681E3D88E8B6C
:104820008E89882309F49EC0198618868E859F85F7
:10483000FC018181882F90E081309105D1F0823098
:10484000910509F469C0892B09F071C0888999899B
:1048500021E030E0FC01348323835AD9882309F412
:1048600063C081E090E00E94841580E40E94B2154C
:104870005BC088899989FC01818992890196C9F573
:1048800088899989FC01258136818091F90390916D
:10489000FA032817390799F488899989AC014F5E82
:1048A0005F4F2091FD033091FE038091FB039091B7
:1048B000FC03B9010E941A42998788871AC08A8925
:1048C0009B89AC89BD89181619061A061B068CF03F
:1048D00088899989FC0185819681892B51F4888981
:1048E0009989E3DA9987888788899989FC01108AF0
:1048F000178688859985892BC9F48889998923E049
:1049000030E0FC013483238382E090E00E94841530
:1049100080E40E94A1150AC08889998922E030E0CC
:10492000FC013483238303C0000001C00000888998
:104930009989FC018581968172D88B8D9C8D22E0AE
:1049400030E0FC013183208388859985892B51F0E3
:104950008B8D9C8D22E030E0FC01318320838DEF34
:104960009FEF0FC08E89882351F48B8D9C8D22E0A0
:1049700030E0FC013183208385EF9FEF02C08A8500
:104980009B856C960FB6F894DEBF0FBECDBFDF914E
:10499000CF911F910F910895CF93DF9300D000D056
:1049A0001F921F92CDB7DEB79C838B837E836D836E
:1049B00058874F838B819C81892B29F58D819E811E
:1049C0009A83898389819A812FEFFC01208320912A
:1049D000B6053091B7058091F1039091F203A09153
:1049E000F303B091F403AC0163E1649FC001659FE0
:1049F000900D1124820F931FFC01228589819A81D9
:104A0000FC01218309C04F8158852D813E818B8116
:104A10009C81B9010E94D815000028960FB6F89421
:104A2000DEBF0FBECDBFDF91CF910895CF93DF934F
:104A3000CDB7DEB766970FB6F894DEBF0FBECDBF19
:104A40009A8B898B7C8B6B8B5E8B4D8B18861F8230
:104A500029893A898B899C89820F931F9A87898734
:104A600089859A859C878B871D861E8619821A8266
:104A70001B821C828B859C85FC0181815DD98D8781
:104A80008D85882351F48D899E8922E030E0FC01D8
:104A90003183208386EF9FEF20C28091B6059091ED
:104AA000B705892B49F08091B8059091B905892BFC
:104AB00019F081E090E002C080E090E08D878D8564
:104AC000882351F48D899E8922E030E0FC013183F6
:104AD00020838EEF9FEF01C20E94EE338E878E857A
:104AE000882309F4EBC11E821D82188A1F868B85DC
:104AF0009C85FC018181882F90E08130910509F42B
:104B000056C08230910509F46CC1892B09F0BFC1F0
:104B100019821A821B821C8231C02091B605309105
:104B2000B70549815A8163E1649FC001659F900D7B
:104B30001124820F931FFC0183819481892B99F0AA
:104B40002091B6053091B70549815A8163E1649F90
:104B5000C001659F900D1124820F931F21E030E06A
:104B6000FC013483238389819A81AB81BC810196C6
:104B7000A11DB11D89839A83AB83BC838091B80545
:104B80009091B905CC01A0E0B0E029813A814B8138
:104B90005C81281739074A075B070CF4BECF81E018
:104BA00090E00E94841580E40E94B21570C11982C1
:104BB0001A821B821C82ACC02091B6053091B705C9
:104BC00049815A8163E1649FC001659F900D112462
:104BD000820F931FFC0183819481029709F08DC09D
:104BE0002091B6053091B70549815A8163E1649FF0
:104BF000C001659F900D1124820F931FFC018189D4
:104C00009289019609F079C02091B6053091B705D7
:104C100049815A8163E1649FC001659F900D112411
:104C2000820F931FFC01258136818091F9039091B9
:104C3000FA0328173907F9F42091B6053091B70522
:104C400049815A8163E1649FC001659F900D1124E1
:104C5000820F931FAC014F5E5F4F2091FD03309197
:104C6000FE038091FB039091FC03B9010E941A425C
:104C70009E838D8342C089819A81AB81BC81181645
:104C800019061A061B06CCF12091B6053091B7051E
:104C900049815A8163E1649FC001659F900D112491
:104CA000820F931FFC0185819681892B31F520911C
:104CB000B6053091B70549815A8163E1649FC0010F
:104CC000659F900D1124820F931FEFD89E838D83D3
:104CD0002091B6053091B70549815A8163E1649FFF
:104CE000C001659F900D1124820F931FFC01108A53
:104CF000178689819A81988B8F8789819A81AB8168
:104D0000BC810196A11DB11D89839A83AB83BC83AD
:104D10008091B8059091B905CC01A0E0B0E029815F
:104D20003A814B815C81281739074A075B072CF4CD
:104D30008D819E81892B09F43FCF8D819E81892BA6
:104D400009F0A2C019821A821B821C8238C02091ED
:104D5000B6053091B70549815A8163E1649FC0016E
:104D6000659F900D1124820F931FFC018381948114
:104D70000297D1F42091B6053091B70549815A8147
:104D800063E1649FC001659F900D1124820F931F02
:104D900023E030E0FC013483238382E090E00E9432
:104DA000841580E40E94A11589819A81AB81BC8120
:104DB0000196A11DB11D89839A83AB83BC83809129
:104DC000B8059091B905CC01A0E0B0E029813A8105
:104DD0004B815C81281739074A075B070CF4B7CF72
:104DE00053C019821A821B821C8231C02091B605E1
:104DF0003091B70549815A8163E1649FC001659F85
:104E0000900D1124820F931FFC01838194810297DE
:104E100099F42091B6053091B70549815A8163E133
:104E2000649FC001659F900D1124820F931F21E0A4
:104E300030E0FC013483238389819A81AB81BC817A
:104E40000196A11DB11D89839A83AB83BC83809198
:104E5000B8059091B905CC01A0E0B0E029813A8174
:104E60004B815C81281739074A075B070CF4BECFDA
:104E70000E94881D882351F081E090E00E948415F3
:104E800080E40E94B21502C0000001C000000E9430
:104E9000FF338D819E81892B51F08D899E8922E07F
:104EA00030E0FC01318320838DEF9FEF16C08D89A8
:104EB0009E8921E030E0FC01318320838E858823A8
:104EC00051F48D899E8922E030E0FC0131832083FA
:104ED00085EF9FEF02C08F81988566960FB6F89494
:104EE000DEBF0FBECDBFDF91CF910895CF93DF938B
:104EF00000D000D0CDB7DEB79A8389837C836B83E3
:104F00005E834D838D819E8128E030E0FC013183FA
:104F1000208380E090E026960FB6F894DEBF0FBEA7
:104F2000CDBFDF91CF910895CF93DF9300D000D014
:104F30001F921F92CDB7DEB79C838B837E836D83D8
:104F400058874F838D819E819A83898389819A8135
:104F500048E050E060E070E00E943E5D89819A8107
:104F60002FEFFC01208389819A8121E1FC012183BB
:104F700089819A812FEF3FEFFC013383228389815E
:104F80009A8120E830E0FC013583248389819A816D
:104F9000FC01168289819A81FC0117820000289603
:104FA0000FB6F894DEBF0FBECDBFDF91CF9108954D
:104FB000CF93DF9300D000D0CDB7DEB79A8389833B
:104FC0007C836B835E834D838D819E8128E030E0FE
:104FD000FC013183208380E090E026960FB6F894A0
:104FE000DEBF0FBECDBFDF91CF910895CF93DF938A
:104FF00000D000D01F921F92CDB7DEB79C838B8369
:105000007E836D8358874F838D819E819A838983A8
:1050100089819A8148E050E060E070E00E943E5D46
:1050200089819A812FEFFC01208389819A8121E077
:10503000FC01218389819A812FEFFC0122838981E0
:105040009A8121E0FC01238389819A812FEFFC0161
:10505000248389819A8124E3FC01258389819A81B3
:1050600021E030E0FC0137832683000028960FB64C
:10507000F894DEBF0FBECDBFDF91CF910895CF93DF
:10508000DF9300D000D000D0CDB7DEB79D838C83F6
:105090007F836E83598748871A8219821B820E94F8
:1050A0000B348B838B81882351F48885998522E08A
:1050B00030E0FC013183208385EF9FEF0DC081E05C
:1050C00090E00E9484158885998521E030E0FC01FC
:1050D0003183208389819A8129960FB6F894DEBFA7
:1050E0000FBECDBFDF91CF910895CF93DF93CDB7A2
:1050F000DEB765970FB6F894DEBF0FBECDBF998BB4
:10510000888B7B8B6A8B5D8B4C8B1C821B822889E6
:1051100039898A899B89820F931F9E838D838D8114
:105120009E8198878F838F819885FC0182819381EE
:10513000CC01A0E0B0E089879A87AB87BC871E8648
:105140001D861F861A8219828091B6059091B70537
:1051500021E0892B09F020E02F878F85882351F4E7
:105160008C899D8922E030E0FC01318320838CEF23
:105170009FEFC9C089859A85AB85BC85181619062D
:105180001A061B065CF489859A85AB85BC85009759
:10519000A140B1051CF481E090E002C080E090E005
:1051A0008F878F85882351F48C899D8922E030E098
:1051B000FC01318320838EEF9FEFA5C089859A85FE
:1051C00043E1489F9001499F300D1124C9010E947D
:1051D000D63D9E878D878D859E85892B51F48C8940
:1051E0009D8922E030E0FC01318320838DEF9FEF29
:1051F0008AC089859A8543E1489F9001499F300D77
:1052000011248D859E85A90160E070E00E943E5DBD
:105210008D859E859093B7058093B60589859A857F
:105220009093B9058093B8051A82198253C02981D9
:105230003A8143E1429FC001439F900D11242D8587
:105240003E85820F931F2FEF3FEFFC01328B218BA6
:1052500029813A8143E1429FC001439F900D11246F
:105260002D853E85820F931FFC01138629813A818B
:1052700043E1429FC001439F900D11242D853E853F
:10528000820F931F21E0FC01248729813A8143E1A9
:10529000429FC001439F900D11242D853E85820FB2
:1052A000931F21E030E0FC013687258729813A8170
:1052B00043E1429FC001439F900D11242D853E85FF
:1052C000820F931FFC01108A178689819A810196AB
:1052D0009A83898389819A81092E000CAA0BBB0BC2
:1052E00029853A854B855C8582179307A407B50706
:1052F0000CF49DCF8C899D8921E030E0FC01318345
:1053000020838B819C8165960FB6F894DEBF0FBE1B
:10531000CDBFDF91CF9108950F931F93CF93DF936C
:10532000CDB7DEB760970FB6F894DEBF0FBECDBF26
:105330009C878B877E876D87588B4F871A8219824F
:105340002B853C858D859E85820F931F9C838B8347
:105350008B819C819E838D838D819E81FC018281C6
:10536000938198878F838D819E81FC0184818987B9
:105370001A868091B6059091B70521E0892B09F432
:1053800020E02A878A85882351F48F85988922E036
:1053900030E0FC01318320838CEF9FEFC9C0809106
:1053A000B8059091B90541E02F8138852817390754
:1053B00008F040E04A878A85882351F48F859889D0
:1053C00022E030E0FC01318320838EEF9FEFB0C0FC
:1053D0008985882331F089858D3F18F481E090E03C
:1053E00002C080E090E08A878A85882351F48F8507
:1053F000988922E030E0FC01318320838EEF9FEF1B
:1054000097C02091B6053091B7054F81588563E16B
:10541000649FC001659F900D1124820F931FFC01B2
:105420008081918121E0892B09F020E02A878A85FB
:10543000882351F48F85988922E030E0FC01318384
:1054400020838CEF9FEF74C08985882F90E02DE03A
:10545000289FB001299F700D11242091B60530912D
:10546000B7054F815885E3E1E49FC001E59F900DAA
:1054700011248901080F191FCB010E94D63DF801A4
:10548000918380832091B6053091B7054F8158856F
:1054900063E1649FC001659F900D1124820F931FEB
:1054A000FC0180819181892B51F48F85988922E0BC
:1054B00030E0FC01318320838DEF9FEF39C0898577
:1054C000882F90E02DE0289FB001299F700D1124B6
:1054D0002091B6053091B7054F815885E3E1E49FEF
:1054E000C001E59F900D1124820F931FFC01808164
:1054F0009181AB0160E070E00E943E5D2091B605B5
:105500003091B7054F81588563E1649FC001659F65
:10551000900D1124820F931F2985FC0122838F8512
:10552000988921E030E0FC013183208389819A81D0
:1055300060960FB6F894DEBF0FBECDBFDF91CF915E
:105540001F910F9108950F931F93CF93DF93CDB7C2
:10555000DEB761970FB6F894DEBF0FBECDBF9D8753
:105560008C877F876E87598B488B1A8219822C858E
:105570003D858E859F85820F931F9C838B838B81B6
:105580009C819E838D838D819E81FC01828193818C
:1055900098878F838D819E81FC01848189878D818D
:1055A0009E81FC0185818A871B868091B60590913A
:1055B000B70521E0892B09F420E02B878B85882310
:1055C00051F48889998922E030E0FC0131832083FD
:1055D0008CEF9FEF57C18091B8059091B90541E0DC
:1055E0002F8138852817390708F040E04B878B85D5
:1055F000882351F48889998922E030E0FC013183C5
:1056000020838EEF9FEF3EC12091B6053091B70504
:105610004F81588563E1649FC001659F900D1124FF
:10562000820F931FFC018081918121E0892B09F475
:1056300020E02B878B85882351F48889998922E083
:1056400030E0FC01318320838CEF9FEF1BC1209160
:10565000B6053091B7054F81588563E1649FC0015D
:10566000659F900D1124820F931FFC01928181E0B0
:105670002985291708F080E08B878B85882351F4D2
:105680008889998922E030E0FC01318320838EEF04
:105690009FEFF8C02091B6053091B7054F8158852E
:1056A00063E1649FC001659F900D1124820F931FD9
:1056B000FC01208131818985482F50E06DE0649F95
:1056C000C001659F900D1124820F931FFC01808102
:1056D000918121E0892B09F020E02B878B8588239D
:1056E00051F48889998922E030E0FC0131832083DC
:1056F0008CEF9FEFC7C081E09A85992309F480E081
:105700008B878B85882351F48889998922E030E042
:10571000FC01318320838EEF9FEFB4C08A85282F50
:1057200030E0C901880F991F880F991F880F991FB2
:10573000BC01621B730B2091B6053091B7054F81F8
:105740005885E3E1E49FC001E59F900D1124820F8D
:10575000931FFC01208131818985482F50E0EDE0C5
:10576000E49FC001E59F900D11248901080F191FC6
:10577000CB010E94D63DF801918380832091B6052C
:105780003091B7054F81588563E1649FC001659FE3
:10579000900D1124820F931FFC0120813181898596
:1057A000482F50E06DE0649FC001659F900D11246B
:1057B000820F931FFC0180819181892B51F488898C
:1057C000998922E030E0FC01318320838DEF9FEF47
:1057D00059C08A85282F30E0C901880F991F880F8A
:1057E000991F880F991FBC01621B730B2091B6058E
:1057F0003091B7054F815885E3E1E49FC001E59FF3
:10580000900D1124820F931FFC0120813181898525
:10581000482F50E0EDE0E49FC001E59F900D11247A
:10582000820F931FFC0180819181AB0160E070E0E9
:105830000E943E5D2091B6053091B7054F81588595
:1058400063E1649FC001659F900D1124820F931F37
:10585000FC01208131818985482F50E06DE0649FF3
:10586000C001659F900D1124820F931F2A85FC01B2
:1058700022838889998921E030E0FC0131832083EB
:1058800089819A8161960FB6F894DEBF0FBECDBFB5
:10589000DF91CF911F910F910895CF93DF9300D0A7
:1058A00000D0CDB7DEB79A8389837C836B835E8318
:1058B0004D838D819E8122E030E0FC013183208385
:1058C00080EF9FEF26960FB6F894DEBF0FBECDBFD8
:1058D000DF91CF910895CF93DF93CDB7DEB7639774
:1058E0000FB6F894DEBF0FBECDBF9F878E87798B32
:1058F000688B5B8B4A8B1A8219822E853F8588893B
:105900009989820F931F9C838B838B819C819E83BB
:105910008D838D819E81FC018281938198878F8305
:105920008D819E81FC01848189878D819E81FC010E
:1059300085818A878D819E81FC01868197819C87E4
:105940008B8781E08D878091B6059091B70521E026
:10595000892B09F420E02D878D85882351F48A89CD
:105960009B8922E030E0FC01318320838CEF9FEFA4
:10597000E0C08091B8059091B90541E02F8138854C
:105980002817390708F040E04D878D85882351F4AA
:105990008A899B8922E030E0FC01318320838EEFED
:1059A0009FEFC7C021E08F819885892B09F020E007
:1059B0002D878D85882351F48A899B8922E030E0E8
:1059C000FC013183208386EF9FEFB3C08985882354
:1059D00019F08985823019F481E090E002C080E0FE
:1059E00090E08D878D85882351F48A899B8922E0F8
:1059F00030E0FC013183208386EF9FEF9AC081E085
:105A00009A85913009F080E08D878D85882351F447
:105A10008A899B8922E030E0FC013183208386EF74
:105A20009FEF87C08985882321F48B859C8501970A
:105A300039F08985882339F08B859C85029718F089
:105A400081E090E002C080E090E08D878D85882322
:105A500051F48A899B8922E030E0FC013183208364
:105A600086EF9FEF66C08F8198850E94501D982F0A
:105A700081E0992309F080E08D878D85882351F49A
:105A80008A899B8922E030E0FC013183208388EF02
:105A90009FEF4FC02091B6053091B7054F815885D3
:105AA00063E1649FC001659F900D1124820F931FD5
:105AB0002985FC0123872091B6053091B7054F81D8
:105AC000588563E1649FC001659F900D1124820F8A
:105AD000931F2A85FC0124872091B6053091B705D4
